{
  "_format": "hh-sol-artifact-1",
  "contractName": "JAITOKEN",
  "sourceName": "contracts/JAITOKEN.sol",
  "abi": [
    {
      "inputs": [
        {
          "internalType": "address",
          "name": "initialOwner",
          "type": "address"
        }
      ],
      "stateMutability": "nonpayable",
      "type": "constructor"
    },
    {
      "inputs": [
        {
          "internalType": "address",
          "name": "sender",
          "type": "address"
        },
        {
          "internalType": "uint256",
          "name": "tokenId",
          "type": "uint256"
        },
        {
          "internalType": "address",
          "name": "owner",
          "type": "address"
        }
      ],
      "name": "ERC721IncorrectOwner",
      "type": "error"
    },
    {
      "inputs": [
        {
          "internalType": "address",
          "name": "operator",
          "type": "address"
        },
        {
          "internalType": "uint256",
          "name": "tokenId",
          "type": "uint256"
        }
      ],
      "name": "ERC721InsufficientApproval",
      "type": "error"
    },
    {
      "inputs": [
        {
          "internalType": "address",
          "name": "approver",
          "type": "address"
        }
      ],
      "name": "ERC721InvalidApprover",
      "type": "error"
    },
    {
      "inputs": [
        {
          "internalType": "address",
          "name": "operator",
          "type": "address"
        }
      ],
      "name": "ERC721InvalidOperator",
      "type": "error"
    },
    {
      "inputs": [
        {
          "internalType": "address",
          "name": "owner",
          "type": "address"
        }
      ],
      "name": "ERC721InvalidOwner",
      "type": "error"
    },
    {
      "inputs": [
        {
          "internalType": "address",
          "name": "receiver",
          "type": "address"
        }
      ],
      "name": "ERC721InvalidReceiver",
      "type": "error"
    },
    {
      "inputs": [
        {
          "internalType": "address",
          "name": "sender",
          "type": "address"
        }
      ],
      "name": "ERC721InvalidSender",
      "type": "error"
    },
    {
      "inputs": [
        {
          "internalType": "uint256",
          "name": "tokenId",
          "type": "uint256"
        }
      ],
      "name": "ERC721NonexistentToken",
      "type": "error"
    },
    {
      "inputs": [
        {
          "internalType": "address",
          "name": "owner",
          "type": "address"
        }
      ],
      "name": "OwnableInvalidOwner",
      "type": "error"
    },
    {
      "inputs": [
        {
          "internalType": "address",
          "name": "account",
          "type": "address"
        }
      ],
      "name": "OwnableUnauthorizedAccount",
      "type": "error"
    },
    {
      "anonymous": false,
      "inputs": [
        {
          "indexed": true,
          "internalType": "address",
          "name": "owner",
          "type": "address"
        },
        {
          "indexed": true,
          "internalType": "address",
          "name": "approved",
          "type": "address"
        },
        {
          "indexed": true,
          "internalType": "uint256",
          "name": "tokenId",
          "type": "uint256"
        }
      ],
      "name": "Approval",
      "type": "event"
    },
    {
      "anonymous": false,
      "inputs": [
        {
          "indexed": true,
          "internalType": "address",
          "name": "owner",
          "type": "address"
        },
        {
          "indexed": true,
          "internalType": "address",
          "name": "operator",
          "type": "address"
        },
        {
          "indexed": false,
          "internalType": "bool",
          "name": "approved",
          "type": "bool"
        }
      ],
      "name": "ApprovalForAll",
      "type": "event"
    },
    {
      "anonymous": false,
      "inputs": [
        {
          "indexed": false,
          "internalType": "uint256",
          "name": "_fromTokenId",
          "type": "uint256"
        },
        {
          "indexed": false,
          "internalType": "uint256",
          "name": "_toTokenId",
          "type": "uint256"
        }
      ],
      "name": "BatchMetadataUpdate",
      "type": "event"
    },
    {
      "anonymous": false,
      "inputs": [
        {
          "indexed": false,
          "internalType": "uint256",
          "name": "_tokenId",
          "type": "uint256"
        }
      ],
      "name": "MetadataUpdate",
      "type": "event"
    },
    {
      "anonymous": false,
      "inputs": [
        {
          "indexed": true,
          "internalType": "address",
          "name": "previousOwner",
          "type": "address"
        },
        {
          "indexed": true,
          "internalType": "address",
          "name": "newOwner",
          "type": "address"
        }
      ],
      "name": "OwnershipTransferred",
      "type": "event"
    },
    {
      "anonymous": false,
      "inputs": [
        {
          "indexed": true,
          "internalType": "address",
          "name": "from",
          "type": "address"
        },
        {
          "indexed": true,
          "internalType": "address",
          "name": "to",
          "type": "address"
        },
        {
          "indexed": true,
          "internalType": "uint256",
          "name": "tokenId",
          "type": "uint256"
        }
      ],
      "name": "Transfer",
      "type": "event"
    },
    {
      "inputs": [
        {
          "internalType": "address",
          "name": "to",
          "type": "address"
        },
        {
          "internalType": "uint256",
          "name": "tokenId",
          "type": "uint256"
        }
      ],
      "name": "approve",
      "outputs": [],
      "stateMutability": "nonpayable",
      "type": "function"
    },
    {
      "inputs": [
        {
          "internalType": "address",
          "name": "owner",
          "type": "address"
        }
      ],
      "name": "balanceOf",
      "outputs": [
        {
          "internalType": "uint256",
          "name": "",
          "type": "uint256"
        }
      ],
      "stateMutability": "view",
      "type": "function"
    },
    {
      "inputs": [
        {
          "internalType": "uint256",
          "name": "tokenId",
          "type": "uint256"
        }
      ],
      "name": "getApproved",
      "outputs": [
        {
          "internalType": "address",
          "name": "",
          "type": "address"
        }
      ],
      "stateMutability": "view",
      "type": "function"
    },
    {
      "inputs": [
        {
          "internalType": "address",
          "name": "owner",
          "type": "address"
        },
        {
          "internalType": "address",
          "name": "operator",
          "type": "address"
        }
      ],
      "name": "isApprovedForAll",
      "outputs": [
        {
          "internalType": "bool",
          "name": "",
          "type": "bool"
        }
      ],
      "stateMutability": "view",
      "type": "function"
    },
    {
      "inputs": [
        {
          "internalType": "address[]",
          "name": "recipients",
          "type": "address[]"
        },
        {
          "internalType": "string[]",
          "name": "tokenURIs",
          "type": "string[]"
        }
      ],
      "name": "mintMultipleNFTs",
      "outputs": [
        {
          "internalType": "uint256",
          "name": "",
          "type": "uint256"
        }
      ],
      "stateMutability": "nonpayable",
      "type": "function"
    },
    {
      "inputs": [
        {
          "internalType": "address",
          "name": "recipient",
          "type": "address"
        },
        {
          "internalType": "string",
          "name": "tokenURI",
          "type": "string"
        }
      ],
      "name": "mintNFT",
      "outputs": [
        {
          "internalType": "uint256",
          "name": "",
          "type": "uint256"
        }
      ],
      "stateMutability": "nonpayable",
      "type": "function"
    },
    {
      "inputs": [],
      "name": "name",
      "outputs": [
        {
          "internalType": "string",
          "name": "",
          "type": "string"
        }
      ],
      "stateMutability": "view",
      "type": "function"
    },
    {
      "inputs": [],
      "name": "owner",
      "outputs": [
        {
          "internalType": "address",
          "name": "",
          "type": "address"
        }
      ],
      "stateMutability": "view",
      "type": "function"
    },
    {
      "inputs": [
        {
          "internalType": "uint256",
          "name": "tokenId",
          "type": "uint256"
        }
      ],
      "name": "ownerOf",
      "outputs": [
        {
          "internalType": "address",
          "name": "",
          "type": "address"
        }
      ],
      "stateMutability": "view",
      "type": "function"
    },
    {
      "inputs": [],
      "name": "renounceOwnership",
      "outputs": [],
      "stateMutability": "nonpayable",
      "type": "function"
    },
    {
      "inputs": [
        {
          "internalType": "address",
          "name": "from",
          "type": "address"
        },
        {
          "internalType": "address",
          "name": "to",
          "type": "address"
        },
        {
          "internalType": "uint256",
          "name": "tokenId",
          "type": "uint256"
        }
      ],
      "name": "safeTransferFrom",
      "outputs": [],
      "stateMutability": "nonpayable",
      "type": "function"
    },
    {
      "inputs": [
        {
          "internalType": "address",
          "name": "from",
          "type": "address"
        },
        {
          "internalType": "address",
          "name": "to",
          "type": "address"
        },
        {
          "internalType": "uint256",
          "name": "tokenId",
          "type": "uint256"
        },
        {
          "internalType": "bytes",
          "name": "data",
          "type": "bytes"
        }
      ],
      "name": "safeTransferFrom",
      "outputs": [],
      "stateMutability": "nonpayable",
      "type": "function"
    },
    {
      "inputs": [
        {
          "internalType": "address",
          "name": "operator",
          "type": "address"
        },
        {
          "internalType": "bool",
          "name": "approved",
          "type": "bool"
        }
      ],
      "name": "setApprovalForAll",
      "outputs": [],
      "stateMutability": "nonpayable",
      "type": "function"
    },
    {
      "inputs": [
        {
          "internalType": "bytes4",
          "name": "interfaceId",
          "type": "bytes4"
        }
      ],
      "name": "supportsInterface",
      "outputs": [
        {
          "internalType": "bool",
          "name": "",
          "type": "bool"
        }
      ],
      "stateMutability": "view",
      "type": "function"
    },
    {
      "inputs": [],
      "name": "symbol",
      "outputs": [
        {
          "internalType": "string",
          "name": "",
          "type": "string"
        }
      ],
      "stateMutability": "view",
      "type": "function"
    },
    {
      "inputs": [
        {
          "internalType": "uint256",
          "name": "tokenId",
          "type": "uint256"
        }
      ],
      "name": "tokenURI",
      "outputs": [
        {
          "internalType": "string",
          "name": "",
          "type": "string"
        }
      ],
      "stateMutability": "view",
      "type": "function"
    },
    {
      "inputs": [
        {
          "internalType": "address",
          "name": "from",
          "type": "address"
        },
        {
          "internalType": "address",
          "name": "to",
          "type": "address"
        },
        {
          "internalType": "uint256",
          "name": "tokenId",
          "type": "uint256"
        }
      ],
      "name": "transferFrom",
      "outputs": [],
      "stateMutability": "nonpayable",
      "type": "function"
    },
    {
      "inputs": [
        {
          "internalType": "address",
          "name": "newOwner",
          "type": "address"
        }
      ],
      "name": "transferOwnership",
      "outputs": [],
      "stateMutability": "nonpayable",
      "type": "function"
    }
  ],
  "bytecode": "0x60806040523480156200001157600080fd5b506040516200197c3803806200197c83398101604081905262000034916200012a565b80604051806040016040528060088152602001672520a4aa27a5a2a760c11b815250604051806040016040528060048152602001631290525560e21b815250816000908162000084919062000203565b50600162000093828262000203565b5050506001600160a01b038116620000c557604051631e4fbdf760e01b81526000600482015260240160405180910390fd5b620000d081620000d8565b5050620002cf565b600780546001600160a01b038381166001600160a01b0319831681179093556040519116919082907f8be0079c531659141344cd1fd0a4f28419497f9722a3daafe3b4186f6b6457e090600090a35050565b6000602082840312156200013d57600080fd5b81516001600160a01b03811681146200015557600080fd5b9392505050565b634e487b7160e01b600052604160045260246000fd5b600181811c908216806200018757607f821691505b602082108103620001a857634e487b7160e01b600052602260045260246000fd5b50919050565b601f821115620001fe576000816000526020600020601f850160051c81016020861015620001d95750805b601f850160051c820191505b81811015620001fa57828155600101620001e5565b5050505b505050565b81516001600160401b038111156200021f576200021f6200015c565b620002378162000230845462000172565b84620001ae565b602080601f8311600181146200026f5760008415620002565750858301515b600019600386901b1c1916600185901b178555620001fa565b600085815260208120601f198616915b82811015620002a0578886015182559484019460019091019084016200027f565b5085821015620002bf5787850151600019600388901b60f8161c191681555b5050505050600190811b01905550565b61169d80620002df6000396000f3fe608060405234801561001057600080fd5b50600436106101165760003560e01c80638da5cb5b116100a2578063c87b56dd11610071578063c87b56dd14610239578063e985e9c51461024c578063eacabe141461025f578063f2fde38b14610272578063f9663a2b1461028557600080fd5b80638da5cb5b146101fa57806395d89b411461020b578063a22cb46514610213578063b88d4fde1461022657600080fd5b806323b872dd116100e957806323b872dd1461019857806342842e0e146101ab5780636352211e146101be57806370a08231146101d1578063715018a6146101f257600080fd5b806301ffc9a71461011b57806306fdde0314610143578063081812fc14610158578063095ea7b314610183575b600080fd5b61012e610129366004610fbf565b610298565b60405190151581526020015b60405180910390f35b61014b6102c3565b60405161013a919061102c565b61016b61016636600461103f565b610355565b6040516001600160a01b03909116815260200161013a565b610196610191366004611074565b61037e565b005b6101966101a636600461109e565b61038d565b6101966101b936600461109e565b61041d565b61016b6101cc36600461103f565b61043d565b6101e46101df3660046110da565b610448565b60405190815260200161013a565b610196610490565b6007546001600160a01b031661016b565b61014b6104a4565b6101966102213660046110f5565b6104b3565b6101966102343660046111d0565b6104be565b61014b61024736600461103f565b6104d5565b61012e61025a36600461124c565b6105e6565b6101e461026d36600461129f565b610614565b6101966102803660046110da565b610651565b6101e46102933660046113a1565b61068f565b60006001600160e01b03198216632483248360e11b14806102bd57506102bd82610772565b92915050565b6060600080546102d290611457565b80601f01602080910402602001604051908101604052809291908181526020018280546102fe90611457565b801561034b5780601f106103205761010080835404028352916020019161034b565b820191906000526020600020905b81548152906001019060200180831161032e57829003601f168201915b5050505050905090565b6000610360826107c2565b506000828152600460205260409020546001600160a01b03166102bd565b6103898282336107fb565b5050565b6001600160a01b0382166103bc57604051633250574960e11b8152600060048201526024015b60405180910390fd5b60006103c9838333610808565b9050836001600160a01b0316816001600160a01b031614610417576040516364283d7b60e01b81526001600160a01b03808616600483015260248201849052821660448201526064016103b3565b50505050565b610438838383604051806020016040528060008152506104be565b505050565b60006102bd826107c2565b60006001600160a01b038216610474576040516322718ad960e21b8152600060048201526024016103b3565b506001600160a01b031660009081526003602052604090205490565b610498610901565b6104a2600061092e565b565b6060600180546102d290611457565b610389338383610980565b6104c984848461038d565b61041784848484610a1f565b60606104e0826107c2565b50600082815260066020526040812080546104fa90611457565b80601f016020809104026020016040519081016040528092919081815260200182805461052690611457565b80156105735780601f1061054857610100808354040283529160200191610573565b820191906000526020600020905b81548152906001019060200180831161055657829003601f168201915b50505050509050600061059160408051602081019091526000815290565b905080516000036105a3575092915050565b8151156105d55780826040516020016105bd929190611491565b60405160208183030381529060405292505050919050565b6105de84610b48565b949350505050565b6001600160a01b03918216600090815260056020908152604080832093909416825291909152205460ff1690565b600061061e610901565b6008805490600061062e836114c0565b90915550506008546106408482610bbc565b61064a8184610c21565b9392505050565b610659610901565b6001600160a01b03811661068357604051631e4fbdf760e01b8152600060048201526024016103b3565b61068c8161092e565b50565b6000610699610901565b81518351146106fb5760405162461bcd60e51b815260206004820152602860248201527f526563697069656e747320616e6420746f6b656e55524973206c656e677468206044820152670dad2e6dac2e8c6d60c31b60648201526084016103b3565b60085460005b84518110156107655781610714816114c0565b92505061073a85828151811061072c5761072c6114e7565b602002602001015183610bbc565b61075d82858381518110610750576107506114e7565b6020026020010151610c21565b600101610701565b5060088190559392505050565b60006001600160e01b031982166380ac58cd60e01b14806107a357506001600160e01b03198216635b5e139f60e01b145b806102bd57506301ffc9a760e01b6001600160e01b03198316146102bd565b6000818152600260205260408120546001600160a01b0316806102bd57604051637e27328960e01b8152600481018490526024016103b3565b6104388383836001610c71565b6000828152600260205260408120546001600160a01b039081169083161561083557610835818486610d77565b6001600160a01b0381161561087357610852600085600080610c71565b6001600160a01b038116600090815260036020526040902080546000190190555b6001600160a01b038516156108a2576001600160a01b0385166000908152600360205260409020805460010190555b60008481526002602052604080822080546001600160a01b0319166001600160a01b0389811691821790925591518793918516917fddf252ad1be2c89b69c2b068fc378daa952ba7f163c4a11628f55a4df523b3ef91a4949350505050565b6007546001600160a01b031633146104a25760405163118cdaa760e01b81523360048201526024016103b3565b600780546001600160a01b038381166001600160a01b0319831681179093556040519116919082907f8be0079c531659141344cd1fd0a4f28419497f9722a3daafe3b4186f6b6457e090600090a35050565b6001600160a01b0382166109b257604051630b61174360e31b81526001600160a01b03831660048201526024016103b3565b6001600160a01b03838116600081815260056020908152604080832094871680845294825291829020805460ff191686151590811790915591519182527f17307eab39ab6107e8899845ad3d59bd9653f200f220920489ca2b5937696c31910160405180910390a3505050565b6001600160a01b0383163b1561041757604051630a85bd0160e11b81526001600160a01b0384169063150b7a0290610a619033908890879087906004016114fd565b6020604051808303816000875af1925050508015610a9c575060408051601f3d908101601f19168201909252610a999181019061153a565b60015b610b05573d808015610aca576040519150601f19603f3d011682016040523d82523d6000602084013e610acf565b606091505b508051600003610afd57604051633250574960e11b81526001600160a01b03851660048201526024016103b3565b805181602001fd5b6001600160e01b03198116630a85bd0160e11b14610b4157604051633250574960e11b81526001600160a01b03851660048201526024016103b3565b5050505050565b6060610b53826107c2565b506000610b6b60408051602081019091526000815290565b90506000815111610b8b576040518060200160405280600081525061064a565b80610b9584610ddb565b604051602001610ba6929190611491565b6040516020818303038152906040529392505050565b6001600160a01b038216610be657604051633250574960e11b8152600060048201526024016103b3565b6000610bf483836000610808565b90506001600160a01b03811615610438576040516339e3563760e11b8152600060048201526024016103b3565b6000828152600660205260409020610c3982826115a7565b506040518281527ff8e1a15aba9398e019f0b49df1a4fde98ee17ae345cb5f6b5e2c27f5033e8ce79060200160405180910390a15050565b8080610c8557506001600160a01b03821615155b15610d47576000610c95846107c2565b90506001600160a01b03831615801590610cc15750826001600160a01b0316816001600160a01b031614155b8015610cd45750610cd281846105e6565b155b15610cfd5760405163a9fbf51f60e01b81526001600160a01b03841660048201526024016103b3565b8115610d455783856001600160a01b0316826001600160a01b03167f8c5be1e5ebec7d5bd14f71427d1e84f3dd0314c0f7b2291e5b200ac8c7c3b92560405160405180910390a45b505b5050600090815260046020526040902080546001600160a01b0319166001600160a01b0392909216919091179055565b610d82838383610e6e565b610438576001600160a01b038316610db057604051637e27328960e01b8152600481018290526024016103b3565b60405163177e802f60e01b81526001600160a01b0383166004820152602481018290526044016103b3565b60606000610de883610ed1565b600101905060008167ffffffffffffffff811115610e0857610e08611131565b6040519080825280601f01601f191660200182016040528015610e32576020820181803683370190505b5090508181016020015b600019016f181899199a1a9b1b9c1cb0b131b232b360811b600a86061a8153600a8504945084610e3c57509392505050565b60006001600160a01b038316158015906105de5750826001600160a01b0316846001600160a01b03161480610ea85750610ea884846105e6565b806105de5750506000908152600460205260409020546001600160a01b03908116911614919050565b60008072184f03e93ff9f4daa797ed6e38ed64bf6a1f0160401b8310610f105772184f03e93ff9f4daa797ed6e38ed64bf6a1f0160401b830492506040015b6d04ee2d6d415b85acef81000000008310610f3c576d04ee2d6d415b85acef8100000000830492506020015b662386f26fc100008310610f5a57662386f26fc10000830492506010015b6305f5e1008310610f72576305f5e100830492506008015b6127108310610f8657612710830492506004015b60648310610f98576064830492506002015b600a83106102bd5760010192915050565b6001600160e01b03198116811461068c57600080fd5b600060208284031215610fd157600080fd5b813561064a81610fa9565b60005b83811015610ff7578181015183820152602001610fdf565b50506000910152565b60008151808452611018816020860160208601610fdc565b601f01601f19169290920160200192915050565b60208152600061064a6020830184611000565b60006020828403121561105157600080fd5b5035919050565b80356001600160a01b038116811461106f57600080fd5b919050565b6000806040838503121561108757600080fd5b61109083611058565b946020939093013593505050565b6000806000606084860312156110b357600080fd5b6110bc84611058565b92506110ca60208501611058565b9150604084013590509250925092565b6000602082840312156110ec57600080fd5b61064a82611058565b6000806040838503121561110857600080fd5b61111183611058565b91506020830135801515811461112657600080fd5b809150509250929050565b634e487b7160e01b600052604160045260246000fd5b604051601f8201601f1916810167ffffffffffffffff8111828210171561117057611170611131565b604052919050565b600067ffffffffffffffff83111561119257611192611131565b6111a5601f8401601f1916602001611147565b90508281528383830111156111b957600080fd5b828260208301376000602084830101529392505050565b600080600080608085870312156111e657600080fd5b6111ef85611058565b93506111fd60208601611058565b925060408501359150606085013567ffffffffffffffff81111561122057600080fd5b8501601f8101871361123157600080fd5b61124087823560208401611178565b91505092959194509250565b6000806040838503121561125f57600080fd5b61126883611058565b915061127660208401611058565b90509250929050565b600082601f83011261129057600080fd5b61064a83833560208501611178565b600080604083850312156112b257600080fd5b6112bb83611058565b9150602083013567ffffffffffffffff8111156112d757600080fd5b6112e38582860161127f565b9150509250929050565b600067ffffffffffffffff82111561130757611307611131565b5060051b60200190565b600082601f83011261132257600080fd5b81356020611337611332836112ed565b611147565b82815260059290921b8401810191818101908684111561135657600080fd5b8286015b8481101561139657803567ffffffffffffffff81111561137a5760008081fd5b6113888986838b010161127f565b84525091830191830161135a565b509695505050505050565b600080604083850312156113b457600080fd5b823567ffffffffffffffff808211156113cc57600080fd5b818501915085601f8301126113e057600080fd5b813560206113f0611332836112ed565b82815260059290921b8401810191818101908984111561140f57600080fd5b948201945b838610156114345761142586611058565b82529482019490820190611414565b9650508601359250508082111561144a57600080fd5b506112e385828601611311565b600181811c9082168061146b57607f821691505b60208210810361148b57634e487b7160e01b600052602260045260246000fd5b50919050565b600083516114a3818460208801610fdc565b8351908301906114b7818360208801610fdc565b01949350505050565b6000600182016114e057634e487b7160e01b600052601160045260246000fd5b5060010190565b634e487b7160e01b600052603260045260246000fd5b6001600160a01b038581168252841660208201526040810183905260806060820181905260009061153090830184611000565b9695505050505050565b60006020828403121561154c57600080fd5b815161064a81610fa9565b601f821115610438576000816000526020600020601f850160051c810160208610156115805750805b601f850160051c820191505b8181101561159f5782815560010161158c565b505050505050565b815167ffffffffffffffff8111156115c1576115c1611131565b6115d5816115cf8454611457565b84611557565b602080601f83116001811461160a57600084156115f25750858301515b600019600386901b1c1916600185901b17855561159f565b600085815260208120601f198616915b828110156116395788860151825594840194600190910190840161161a565b50858210156116575787850151600019600388901b60f8161c191681555b5050505050600190811b0190555056fea264697066735822122039228bda1497be88c66bb03f51e5fa659a3d034f7441c688d4fe78112f745d2564736f6c63430008180033",
  "linkReferences": {},
  "deployedLinkReferences": {}
}